S012000074696D6572305F6374632E7372656328
S11300000C9434000C9446000C9446000C94460066
S11300100C9446000C9446000C9446000C94460044
S11300200C9446000C9446000C9446000C94460034
S11300300C9446000C9446000C945A000C94460010
S11300400C9446000C9446000C9446000C94460014
S11300500C9446000C9446000C9446000C94460004
S11300600C9446000C94460011241FBECFEFD8E038
S1130070DEBFCDBF21E0A0E0B1E001C01D92A230FF
S1130080B207E1F70E9448000C947C000C94000035
S1130090F894209A289A84B5816084BD85B58560DA
S11300A085BD89E087BDEEE6F0E0808182608083D3
S11300B07894FFCF1F920F920FB60F9211248F9353
S11300C09F93809100019091010101969093010109
S11300D0809300018536910540F095B181E0892730
S11300E085B910920101109200019F918F910F9098
S10F00F00FBE0F901F901895F894FFCFDE
S9030000FC
