S012000074696D6572305F6374632E7372656328
S11300000C9434000C9446000C9446000C94460066
S11300100C9446000C9446000C9446000C94460044
S11300200C9446000C9446000C9446000C94460034
S11300300C9446000C9446000C9466000C94460004
S11300400C9446000C9446000C9446000C94460014
S11300500C9446000C9446000C9446000C94460004
S11300600C9446000C94460011241FBECFEFD8E038
S1130070DEBFCDBF11E0A0E0B1E001C01D92A2300F
S1130080B107E1F70E9448000C948E000C94000024
S1130090F894E4E2F0E0808181608083E5E2F0E0BE
S11300A0808181608083E4E4F0E0808181608083EA
S11300B0E5E4F0E080818560808389E087BDEEE639
S11300C0F0E08081826080837894FFCF1F920F924A
S11300D00FB60F9211248F939F93EF93FF93809108
S11300E00001909101010196909301018093000118
S11300F08536910550F0E5E2F0E0808191E08927B2
S113010080831092010110920001FF91EF919F9161
S11301108F910F900FBE0F901F901895F894FFCFFA
S9030000FC
