S01400004170726573656E746163616F2E737265633A
S11300000C9434000C9469020C9451000C9451002B
S11300100C9402030C9451000C9451000C94510064
S11300200C9451000C94ED010C9451000C9451006B
S11300300C9451000C94D7020C9451000C94510070
S11300400C9451000C9451000C9451000C945100E8
S11300500C9451000C9451000C9451000C945100D8
S11300600C9451000C94510011241FBECFEFD8E022
S1130070DEBFCDBF11E0A0E0B1E0ECE7FAE002C0E2
S113008005900D92A831B107D9F711E0A8E1B1E0CC
S113009001C01D92A236B107E1F70E943C010C9405
S11300A03C050C9400009093C5008093C400E1ECDF
S11300B0F0E088E18083208181E090E002C0880F35
S11300C0991F2A95E2F786608093C2000895EAE2B8
S11300D0F0E0808180648083EBE2F0E080818F7BBC
S11300E080830895E7E2F0E080818F7D8083E8E2F9
S11300F0F0E08081806280830895E8E6F0E080810A
S113010082608083ECE6F0E08081806280830895E1
S1130110982FE0ECF0E0808185FFFDCF9093C6003E
S11301200895CF93DF93FC018081882339F0EF0198
S11301300E948800898121968823D1F7DF91CF918D
S11301400895E4E2F0E080818260808380818460AD
S11301508083E7E2F0E08081826080838081816037
S113016080830895E4E4F0E08081836A8083609171
S1130170120170911301809114019091150120E0F6
S113018030E048EC52E40E947D0320E030E04FE789
S113019053E40E9462040E94E50367BD68BDE5E480
S11301A0F0E08081816080831092B00087E08093CA
S11301B0B10081E0809370001092B2000895EAE2E9
S11301C0F0E080818068808380818B7F808324EF4E
S11301D031E040E951E0CA010197F1F72150304084
S11301E0D1F7EDE3F0E0808181608083E9E6F0E01F
S11301F08081816080830895E8E2F0E080818160FD
S1130200808380818D7F8083E5E2F0E0808182605D
S1130210808380818B7F80830895E8E2F0E0808191
S11302208260808380818E7F8083E5E2F0E080813C
S11302308460808380818D7F808308956091120122
S113024070911301809114019091150120E030E028
S113025048EC52E40E947D0320E030E04FE753E491
S11302600E9462040E94E50367BD18BC0E94FC0062
S1130270089517BC18BC08956F927F928F929F9235
S1130280BF92CF92DF92EF92FF920F931F93CF937F
S1130290DF93F8940E94A1000E94B2000E946700BC
S11302A0EAE2F0E08081806280830E94DF000E94A5
S11302B072000E947D0087E690E00E9453000E9435
S11302C01E0178940BE210E00F2EF0E5BF2EF02D06
S11302D00F2EF6E2CF2EF1E0DF2EF02D0F2EF3E7F6
S11302E06F2E7724F02D0F2EF8EB8F2EFBE09F2E30
S11302F0F02DC0E9D1E00F2EF0EDEF2EF7E0FF2E48
S1130300F02DF8018081806880838B2D8A95F1F728
S113031080818F778083809120019091210164E70F
S113032070E00E94E404862F972F9C0140911801ED
S113033050911901CA01880F991FF601E80FF91F9E
S1130340318320838091240190912501892BF9F434
S113035012161306E4F480911601909117012817E0
S11303603907ACF43093170120931601469DC00160
S1130370479D900D569D900D11246AE070E00E94F7
S1130380E4046A50704070931B0160931A01C90120
S113039001970E9758F40E940D019401CE01019724
S11303A0F1F721503040D1F70E94390180911801B2
S11303B090911901019690931901809318014E9719
S11303C024F01092190110921801C701FE0131970F
S11303D0F1F7019709F495CFF9CF1F920F920FB659
S11303E00F9211242F933F934F935F936F937F93B7
S11303F08F939F93AF93BF93EF93FF9380912201C9
S1130400909123010196909323018093220180917E
S11304102401909125018F5F9F4F89F50E941E0151
S1130420209122013091230180911A0190911B01A6
S11304302817390721F50E94FC0060911201709180
S11304401301809114019091150120E030E048ECF3
S113045052E40E947D0320E030E04FE753E40E9421
S113046062040E94E50367BD68BD81E090E090935B
S1130470250180932401109223011092220180917E
S1130480240190912501892B99F480912201909166
S113049023018337910561F40E9439018FEF9FEFA7
S11304A0909325018093240110922301109222013C
S11304B0FF91EF91BF91AF919F918F917F916F9138
S11304C05F914F913F912F910F900FBE0F901F900E
S11304D018951F920F920FB60F921124EF92FF926C
S11304E00F931F932F933F934F935F936F937F9338
S11304F08F939F93AF93BF93EF93FF9380911C01CE
S113050090911D01019749F5109281000F2EF4E896
S1130510EF2EFF24F02DF7010081118160911E015F
S113052070911F01882777FD8095982F2FEF3FEF5B
S113053040E050E00E94C504060F171F10932101EC
S113054000932001F7011182108210921D01109274
S11305501C0110921F0110921E0180911C019091A8
S11305601D01892B79F410921F0110921E01E1E8FC
S1130570F0E080818260808381E090E090931D01AF
S113058080931C01FF91EF91BF91AF919F918F9147
S11305907F916F915F914F913F912F911F910F9197
S11305A0FF90EF900F900FBE0F901F9018951F9221
S11305B00F920FB60F9211248F939F93EF93FF9393
S11305C080911C0190911D01019799F4109285006E
S11305D01092840080911E0190911F0101969093C6
S11305E01F0180931E01EBE2F0E0808190E48927F3
S11305F08083FF91EF919F918F910F900FBE0F9089
S11306001F9018951F920F920FB60F921124CF923C
S1130610DF92EF92FF920F931F932F933F934F9389
S11306205F936F937F938F939F93AF93BF93EF9356
S1130630FF93DF93CF93CDB7DEB72A97DEBFCDBF4D
S113064035993FC024EF31E040E951E0CA010197F8
S1130650F1F721503040D1F7359933C00E94390168
S1130660EEE6F0E080818E7F808380E091E00E945E
S1130670910006E211E07E010894E11CF11C0F2EAA
S1130680F2E6CF2EF1E0DF2EF02DF8018191919169
S11306908F01B7014AE050E00E940B05C7010E9498
S11306A091008BE30E9488000C151D0571F787E00B
S11306B091E00E94910080911A0190911B010E9487
S11306C091002A96DEBFCDBFCF91DF91FF91EF91CC
S11306D0BF91AF919F918F917F916F915F914F9156
S11306E03F912F911F910F91FF90EF90DF90CF904A
S11306F00F900FBE0F901F9018950CD0A9C0A1D0D9
S113070040F098D030F021F45F3F19F08AC05111C5
S1130710D3C08DC0AED098F39923C9F35523B1F358
S1130720951B550BBB27AA2762177307840738F05C
S11307309F5F5F4F220F331F441FAA1FA9F333D0BB
S11307400E2E3AF0E0E830D091505040E695001C6F
S1130750CAF729D0FE2F27D0660F771F881FBB1F2B
S1130760261737074807AB07B0E809F0BB0B802D05
S1130770BF01FF2793585F4F2AF09E3F510568F051
S113078050C09AC05F3FECF3983EDCF386957795B2
S11307906795B795F7959F5FC9F7880F911D969553
S11307A0879597F90895E1E0660F771F881FBB1FAF
S11307B0621773078407BA0720F0621B730B840B5C
S11307C0BA0BEE1F88F7E09508955BD088F09F5729
S11307D090F0B92F9927B751A0F0D1F0660F771F89
S11307E0881F991F1AF0BA95C9F712C0B13081F069
S11307F062D0B1E008955FC0672F782F8827B85F73
S113080039F0B93FCCF3869577956795B395D9F7C9
S11308103EF490958095709561957F4F8F4F9F4FD3
S1130820089597F99F6780E870E060E008959FEF6E
S113083080EC089500240A94161617061806090673
S1130840089500240A941216130614060506089542
S1130850092E0394000C11F4882352F0BB0F40F4CA
S1130860BF2B11F460FF04C06F5F7F4F8F4F9F4F0A
S1130870089557FD9058440F551F59F05F3F71F08C
S11308804795880F97FB991F61F09F3F79F08795F3
S11308900895121613061406551FF2CF4695F1DF7C
S11308A008C0161617061806991FF1CF869571050C
S11308B0610508940895E894BB2766277727CB0140
S11308C097F908950BD0C4CFB5DF28F0BADF18F03C
S11308D0952309F0A6CFABCF1124EECFCADFA0F346
S11308E0959FD1F3950F50E0551F629FF001729FC1
S11308F0BB27F00DB11D639FAA27F00DB11DAA1FE0
S1130900649F6627B00DA11D661F829F2227B00D2C
S1130910A11D621F739FB00DA11D621F839FA00DB7
S1130920611D221F749F3327A00D611D231F849F07
S1130930600D211D822F762F6A2F11249F5750405E
S11309408AF0E1F088234AF0EE0FFF1FBB1F661FF9
S1130950771F881F91505040A9F79E3F510570F0B2
S113096060CFAACF5F3FECF3983EDCF38695779592
S11309706795B795F795E7959F5FC1F7FE2B880FAD
S1130980911D9695879597F90895629FD001739F5D
S1130990F001829FE00DF11D649FE00DF11D929F17
S11309A0F00D839FF00D749FF00D659FF00D992756
S11309B0729FB00DE11DF91F639FB00DE11DF91F7A
S11309C0BD01CF011124089597FB092E07260AD0F3
S11309D077FD04D00CD006D000201AF470956195F0
S11309E07F4F0895F6F7909581959F4F0895AA1B20
S11309F0BB1B51E107C0AA1FBB1FA617B70710F006
S1130A00A61BB70B881F991F5A95A9F78095909537
S1130A10BC01CD010895FB019F01E8944230C4F06C
S1130A204532B4F44A3029F497FB1EF4909581952D
S1130A309F4F642F77270E94F704805D8A330CF060
S1130A40895D8193CB010097A1F716F45DE2519380
S1130A501082C9010C942C05DC01FC01672F7191F3
S1130A607723E1F7329704C07C916D937083629190
S10F0A70AE17BF07C8F30895F894FFCF39
S1130A7C53746F700A0D000A0D46696E6973680A27
S10B0A8C0D0000008642640025
S9030000FC
