:100000000C9434000C9451000C94FD000C9451009D
:100010000C9451000C9451000C9451000C9451001C
:100020000C9451000C9451000C9451000C9451000C
:100030000C9451000C9451000C9451000C945100FC
:100040000C9480000C9451000C9451000C945100BD
:100050000C9451000C9451000C9451000C945100DC
:100060000C9451000C94510011241FBECFEFD8E026
:10007000DEBFCDBF11E0A0E0B1E0E4EEF3E002C0EE
:1000800005900D92A630B107D9F711E0A6E0B1E0D6
:1000900001C01D92AD31B107E1F70E94C2000C947E
:1000A000F0010C9400009093C5008093C400E1EC33
:1000B000F0E088E18083208181E090E002C0880F39
:1000C000991F2A95E2F786608093C2000895982FC1
:1000D000E0ECF0E0808185FFFDCF9093C6000895AD
:1000E000CF93DF93FC018081882339F0EF010E94D8
:1000F0006700898121968823D1F7DF91CF910895F8
:100100001F920F920FB60F9211248F939F93AF936C
:10011000BF9380910A01882399F080910F019091FB
:100120001001A0911101B09112010196A11DB11D04
:1001300080930F0190931001A0931101B0931201CD
:10014000BF91AF919F918F910F900FBE0F901F9015
:100150001895EBE2F0E010828AE18A95F1F780EFE2
:10016000808381E090E0A0E0B0E080930B01909369
:100170000C01A0930D01B0930E018AE68A95F1F768
:10018000108208950F931F93CF93DF9387E690E03B
:100190000E945300EAE2F0E08081806480838081E5
:1001A000877F80831BB8E9E6F0E0808184608083EC
:1001B000EDE3F0E0808182608083EEE6F0E0808114
:1001C00081608083789408E813E1C0E9D1E08091F0
:1001D0000B0190910C01A0910D01B0910E010097BF
:1001E000A105B105A1F79801CE010197F1F72150C2
:1001F0003040D1F70E94A900EACF1F920F920FB6AC
:100200000F9211240F931F932F933F934F935F935C
:100210006F937F938F939F93AF93BF93EF93FF93CE
:1002200080910B0190910C01A0910D01B0910E01F4
:100230000097A105B10509F459C080910A018823EE
:1002400091F481E080930A0110920F011092100145
:100250001092110110921201E4E4F0E080818160BB
:10026000808316BC43C010920A0160910F01709107
:100270001001809111019091120126B5982F872FBE
:10028000762F6627620F711D811D911D2AE330E0D4
:1002900040E050E00E948901822F932FA42FB52FB8
:1002A0008093060190930701A0930801B093090180
:1002B00010920B0110920C0110920D0110920E0180
:1002C0008091060190910701A0910801B091090168
:1002D00003E111E0B8014AE050E00E94AB01C8011F
:1002E0000E94700080E091E00E947000FF91EF9109
:1002F000BF91AF919F918F917F916F915F914F913E
:100300003F912F911F910F910F900FBE0F901F9053
:100310001895A1E21A2EAA1BBB1BFD010DC0AA1F36
:10032000BB1FEE1FFF1FA217B307E407F50720F05E
:10033000A21BB30BE40BF50B661F771F881F991FD9
:100340001A9469F760957095809590959B01AC0122
:10035000BD01CF010895FB019F01E8944230C4F034
:100360004532B4F44A3029F497FB1EF490958195F8
:100370009F4F642F77270E94DC01805D8A330CF049
:10038000895D8193CB010097A1F716F45DE251934B
:100390001082C9010C94CC01DC01FC01672F719122
:1003A0007723E1F7329704C07C916D93708362915B
:1003B000AE17BF07C8F30895AA1BBB1B51E107C0C6
:1003C000AA1FBB1FA617B70710F0A61BB70B881FE5
:1003D000991F5A95A9F780959095BC01CD01089574
:0403E000F894FFCFBF
:0603E4006F6C610A0D00C0
:00000001FF
