S011000074696D65725F6374632E7372656359
S11300000C9434000C943E000C943E000C943E007E
S11300100C943E000C943E000C943E000C943E0064
S11300200C943E000C943E000C943E000C9464002E
S11300300C943E000C943E000C943E000C943E0044
S11300400C943E000C943E000C943E000C943E0034
S11300500C943E000C943E000C943E000C943E0024
S11300600C943E000C943E0011241FBECFEFD8E048
S1130070DEBFCDBF0E9440000C947C000C940000B5
S1130080F894E4E2F0E0808181608083E5E2F0E0CE
S113009080818160808310928000E1E8F0E010822A
S11300A0109285001092840089E09DE3909389006A
S11300B08093880080818D608083EFE6F0E080810A
S11300C0826080837894FFCF1F920F920FB60F92B5
S11300D011248F939F93EF93FF93E5E2F0E08081E7
S11300E091E089278083FF91EF919F918F910F90E9
S10F00F00FBE0F901F901895F894FFCFDE
S9030000FC
