S00F000048432D535230342E7372656354
S11300000C9434000C948B000C9451000C9451000B
S11300100C9451000C9451000C9451000C94510018
S11300200C9451000C9451000C9451000C94510008
S11300300C9451000C9451000C9451000C945100F8
S11300400C9451000C9451000C9451000C945100E8
S11300500C9451000C9451000C9451000C945100D8
S11300600C9451000C94510011241FBECFEFD8E022
S1130070DEBFCDBF11E0A0E0B1E0EEE1F3E002C0ED
S113008005900D92A431B107D9F711E0A4E1B1E0D4
S113009001C01D92A831B107E1F70E94C4000C947D
S11300A08D010C9400009093C5008093C400E1EC92
S11300B0F0E088E18083208181E090E002C0880F35
S11300C0991F2A95E2F786608093C2000895EAE2B8
S11300D0F0E0808180648083EBE2F0E080818064E2
S11300E080830895982FE0ECF0E0808185FFFDCFB8
S11300F09093C6000895CF93DF93FC0180818823F9
S113010039F0EF010E947200898121968823D1F78A
S1130110DF91CF9108951F920F920FB60F92112481
S11301208F939F93EF93FF93809114019091150106
S1130130019781F410928100E4E8F0E080819181DC
S11301409093170180931601118210821092150169
S1130150109214018091140190911501892B59F486
S1130160E1E8F0E080818160808381E090E0909319
S1130170150180931401FF91EF919F918F910F903E
S11301800FBE0F901F9018957F928F929F92AF92FF
S1130190BF92CF92DF92EF92FF920F931F93DF9360
S11301A0CF9300D00F92CDB7DEB7F89487E690E0F6
S11301B00E9453000E946700EAE2F0E080818068B8
S11301C0808380818B7F808324EF31E040E951E09C
S11301D0CA010197F1F721503040D1F7EDE3F0E087
S11301E0808181608083E9E6F0E0808181608083A2
S11301F078940F2EFBE2EF2EFF24F02D0F2EF0E566
S11302007F2EF02D0F2EF0E08F2EF1E09F2EF02D9B
S11302106E010894C11CD11C0F2EFEE0AF2EF1E03C
S1130220BF2EF02DF701808180688083872D8A9509
S1130230F1F780818F778083009116011091170167
S1130240C4010E947B00C8016AE370E00E9435018A
S1130250CB01B6014AE050E00E945C01C6010E9455
S11302607B00C5010E947B00DDCF97FB092E07268A
S11302700AD077FD04D00CD006D000201AF4709573
S113028061957F4F0895F6F7909581959F4F089556
S1130290AA1BBB1B51E107C0AA1FBB1FA617B707A8
S11302A010F0A61BB70B881F991F5A95A9F78095C4
S11302B09095BC01CD010895FB019F01E894423063
S11302C0C4F04532B4F44A3029F497FB1EF49095F7
S11302D081959F4F642F77270E944801805D8A3360
S11302E00CF0895D8193CB010097A1F716F45DE2D0
S11302F051931082C9010C947D01DC01FC01672F2C
S113030071917723E1F7329704C07C916D937083E8
S11103106291AE17BF07C8F30895F894FFCFAB
S113031E44495354414E4345203D200A0D00636D1C
S107032E0A0D0000B0
S9030000FC
