S00E0000627574746F6E2E737265637A
S11300000C9434000C943E000C943E000C943E007E
S11300100C9478000C943E000C943E000C943E002A
S11300200C943E000C943E000C943E000C943E0054
S11300300C943E000C943E000C943E000C943E0044
S11300400C943E000C943E000C943E000C943E0034
S11300500C943E000C943E000C943E000C943E0024
S11300600C943E000C943E0011241FBECFEFD8E048
S1130070DEBFCDBF0E9440000C94B5000C9400007C
S1130080F894EAE2F0E0808180648083E7E2F0E0C3
S113009080818F7D8083E8E2F0E0808180628083CC
S11300A0E8E6F0E0808182608083ECE6F0E0808125
S11300B0806280837894EBE2F0E0A0E2BEE440E961
S11300C051E060E177E28081806480839D01CA0110
S11300D00197F1F721503040D1F780818F7B8083E5
S11300E09B01CA010197F1F721503040D1F7EBCFC2
S11300F01F920F920FB60F9211242F933F934F9399
S11301005F938F939F93AF93BF93EF93FF9335992F
S11301101DC028EE33E040E951E0CA010197F1F730
S113012021503040D1F735990AC0EBE2F0E0A6E265
S1130130B0E08081806480838C9185FFFACF359B09
S113014005C0EBE2F0E080818F7B8083FF91EF912B
S1130150BF91AF919F918F915F914F913F912F915B
S11101600F900FBE0F901F901895F894FFCFCC
S9030000FC
