:100000000C9443000C9460000C9460000C9460000D
:100010000C9460000C9460000C9460000C946000E0
:100020000C9460000C9460000C9460000C946000D0
:100030000C9460000C9460000C9460000C946000C0
:100040000C948C000C9460000C9460000C94600084
:100050000C9460000C9460000C9460000C946000A0
:100060000C9460000C94600005A84CCDB2D44EB93D
:100070003836A9020C50B9918688083CA6AAAA2A4B
:10008000BE000000803F11241FBECFEFD8E0DEBFCE
:10009000CDBF11E0A0E0B1E0E8E1F8E002C00590DA
:1000A0000D92A430B107D9F721E0A4E0B1E001C07E
:1000B0001D92A630B207E1F70E9462000C940A0478
:1000C0000C940000F89484B5836884BDC1E0C093AB
:1000D0006E00569A389A399A409A4198219A229AF3
:1000E000299A2A9820E030E048EC52E4609100011F
:1000F0007091010180910201909103010E94B5016C
:1001000020E030E04FE753E40E94E9020E9427021A
:1001100067BDC5BD7894FFCF1F920F920FB60F92A7
:100120001124CF92DF92EF92FF922F933F934F9340
:100130005F936F937F938F939F93AF93BF93EF934F
:10014000FF932FEF83ED90E3215080409040E1F743
:1001500000C000006091040170910501072E000CA1
:10016000880B990B0E9458022DEC3CEC4CEC5EE3A2
:100170000E94E9020E9456036B017C0120E030E0FE
:10018000A9010E94E4028823DCF020E030E048E48A
:1001900052E4C701B6010E94E90220E030E048E4E1
:1001A00052E40E9449016093000170930101809321
:1001B000020190930301409A4198299A2A981BC002
:1001C000C701B601905820E030E048E452E40E94B4
:1001D000E90220E030E048E452E40E9449016093E3
:1001E0000001709301018093020190930301419AF1
:1001F00040982A9A299820E030E048EC52E4609137
:1002000000017091010180910201909103010E940F
:10021000E402882344F01092000110920101109230
:1002200002011092030120E030E048EC52E46091BA
:1002300000017091010180910201909103010E94DF
:10024000B50120E030E04FE753E40E94E9020E944C
:10025000270267BD8091040190910501019690935A
:10026000050180930401FF91EF91BF91AF919F91A0
:100270008F917F916F915F914F913F912F91FF905F
:10028000EF90DF90CF900F900FBE0F901F901895BA
:100290005058BB27AA270E9460010C94AA020E9412
:1002A0009C0238F00E94A30220F039F49F3F19F419
:1002B00026F40C9499020EF4E095E7FB0C9493025B
:1002C000E92F0E94BB0258F3BA176207730784072D
:1002D000950720F079F4A6F50C94DD020EF4E09574
:1002E0000B2EBA2FA02D0B01B90190010C01CA01F0
:1002F000A0011124FF27591B99F0593F50F4503E9B
:1003000068F11A16F040A22F232F342F4427585F8C
:10031000F3CF469537952795A795F0405395C9F7A4
:100320007EF41F16BA0B620B730B840BBAF091505C
:10033000A1F0FF0FBB1F661F771F881FC2F70EC0FB
:10034000BA0F621F731F841F48F4879577956795CE
:10035000B795F7959E3F08F0B0CF9395880F08F0BA
:100360009927EE0F9795879508950E94C9010C94DF
:10037000AA020E94A30258F00E949C0240F029F4B5
:100380005F3F29F00C94930251110C94DE020C94FF
:1003900099020E94BB0268F39923B1F3552391F3AC
:1003A000951B550BBB27AA2762177307840738F0E4
:1003B0009F5F5F4F220F331F441FAA1FA9F335D041
:1003C0000E2E3AF0E0E832D091505040E695001CF5
:1003D000CAF72BD0FE2F29D0660F771F881FBB1FAF
:1003E000261737074807AB07B0E809F0BB0B802D8D
:1003F000BF01FF2793585F4F3AF09E3F510578F0B9
:100400000C9493020C94DE025F3FE4F3983ED4F325
:10041000869577956795B795F7959F5FC9F7880F8C
:10042000911D9695879597F90895E1E0660F771FDE
:10043000881FBB1F621773078407BA0720F0621B6F
:10044000730B840BBA0BEE1F88F7E09508950E949A
:10045000C30288F09F5798F0B92F9927B751B0F091
:10046000E1F0660F771F881F991F1AF0BA95C9F738
:1004700014C0B13091F00E94DD02B1E008950C94F7
:10048000DD02672F782F8827B85F39F0B93FCCF3AA
:10049000869577956795B395D9F73EF490958095B5
:1004A000709561957F4F8F4F9F4F0895E89409C0D5
:1004B00097FB3EF490958095709561957F4F8F4F97
:1004C0009F4F9923A9F0F92F96E9BB279395F695AD
:1004D000879577956795B795F111F8CFFAF4BB0F2B
:1004E00011F460FF1BC06F5F7F4F8F4F9F4F16C08F
:1004F000882311F096E911C0772321F09EE8872F19
:10050000762F05C0662371F096E8862F70E060E0D4
:100510002AF09A95660F771F881FDAF7880F96954D
:10052000879597F9089597F99F6780E870E060E0F4
:1005300008959FEF80EC089500240A94161617067C
:1005400018060906089500240A94121613061406C4
:1005500005060895092E0394000C11F4882352F027
:10056000BB0F40F4BF2B11F460FF04C06F5F7F4FDF
:100570008F4F9F4F089557FD9058440F551F59F0C6
:100580005F3F71F04795880F97FB991F61F09F3F80
:1005900079F087950895121613061406551FF2CFA9
:1005A0004695F1DF08C0161617061806991FF1CFF9
:1005B00086957105610508940895E894BB27662720
:1005C0007727CB0197F908950E945E0308F48FEF17
:1005D00008950E94FC020C94AA020E949C0238F02A
:1005E0000E94A30220F0952311F00C9493020C9426
:1005F000990211240C94DE020E94BB0270F3959FB5
:10060000C1F3950F50E0551F629FF001729FBB2709
:10061000F00DB11D639FAA27F00DB11DAA1F649FA5
:100620006627B00DA11D661F829F2227B00DA11D58
:10063000621F739FB00DA11D621F839FA00D611DDE
:10064000221F749F3327A00D611D231F849F600DFF
:10065000211D822F762F6A2F11249F5750409AF028
:10066000F1F088234AF0EE0FFF1FBB1F661F771FB4
:10067000881F91505040A9F79E3F510580F00C947F
:1006800093020C94DE025F3FE4F3983ED4F3869528
:1006900077956795B795F795E7959F5FC1F7FE2B1F
:1006A000880F911D9695879597F908959F930E94BD
:1006B00084030F9007FCEE5F0C94AD03990F0008C4
:1006C000550FAA0BE0E8FEEF16161706E807F90724
:1006D000C0F012161306E407F50798F0621B730BBF
:1006E000840B950B39F40A2661F0232B242B252B40
:1006F00021F408950A2609F4A140A6958FEF811DE3
:10070000811D08950C9499020E94C302D8F3E894C5
:10071000E0E0BB279F57F0F02AED3FE049EC06C030
:10072000EE0FBB0F661F771F881F28F0B23A6207D3
:100730007307840728F0B25A620B730B840BE3959E
:100740009A9572F7803830F49A95BB0F661F771F21
:10075000881FD2F790480C94C303EF93E0FF07C0C3
:10076000A2EA2AED3FE049EC5FEB0E9460010E94A3
:10077000AA020F90039401FC9058E8E6F0E00C9474
:10078000CF039F3F31F0915020F48795779567957F
:10079000B795880F911D9695879597F908959F9322
:1007A0008F937F936F93FF93EF939B01AC010E9414
:1007B000E902EF91FF910E94E3032F913F914F9146
:1007C0005F910C94E902DF93CF931F930F93FF92F5
:1007D000EF92DF927B018C01689406C0DA2EEF0164
:1007E0000E94FC02FE01E894A59125913591459166
:1007F0005591A6F3EF010E946001FE019701A80147
:10080000DA9469F7DF90EF90FF900F911F91CF91ED
:08081000DF910895F894FFCF79
:040818000000484252
:00000001FF
