:100000000C9434000C943E000C943E000C943E0082
:100010000C943E000C943E000C943E000C943E0068
:100020000C943E000C943E000C943E000C943E0058
:100030000C943E000C943E000C943E000C943E0048
:100040000C943E000C943E000C943E000C943E0038
:100050000C943E000C943E000C943E000C943E0028
:100060000C943E000C943E0011241FBECFEFD8E04C
:10007000DEBFCDBF0E944B000C9461000C940000C9
:10008000E4E4F0E0808183688083E4E2F0E0808152
:100090008160808308950E94400020E0E7E4F0E062
:1000A00040E45CE905C02083CA010197F1F72F5FA6
:1000B0002F3FC9F72083CA010197F1F72150D1F7EB
:0600C000F7CFF894FFCF1A
:00000001FF
