:100000000C9434000C9446000C9446000C9446006A
:100010000C9446000C9446000C9446000C94460048
:100020000C9446000C9446000C9446000C94460038
:100030000C9446000C9460000C9446000C9446000E
:100040000C9446000C9446000C9446000C94460018
:100050000C9446000C9446000C9446000C94460008
:100060000C9446000C94460011241FBECFEFD8E03C
:10007000DEBFCDBF21E0A0E0B1E001C01D92A13004
:10008000B207E1F70E9448000C947D000C94000038
:10009000F894209A289A10928000E1E8F0E010820B
:1000A00080818560808387EF92EC909385008093B8
:1000B0008400EFE6F0E08081816080837894FFCF58
:1000C0001F920F920FB60F9211248F939F9387EF79
:1000D00092EC9093850080938400809100018F5F63
:1000E0008093000195B181E0892785B99F918F9117
:0E00F0000F900FBE0F901F901895F894FFCF41
:00000001FF
