S014000053656E736F72202B2050574D2E7372656337
S11300000C9434000C946D010C9451000C94510028
S11300100C9451000C9451000C9451000C94510018
S11300200C9451000C941B010C9451000C9451003D
S11300300C9451000C94DB010C9451000C9451006D
S11300400C9451000C9451000C9451000C945100E8
S11300500C9451000C9451000C9451000C945100D8
S11300600C9451000C94510011241FBECFEFD8E022
S1130070DEBFCDBF11E0A0E0B1E0E2EBF8E002C0EA
S113008005900D92AC32B107D9F711E0ACE2B1E0C2
S113009001C01D92A433B107E1F70E9406020C943B
S11300A057040C9400009093C5008093C400E1ECC5
S11300B0F0E088E18083208181E090E002C0880F35
S11300C0991F2A95E2F786608093C2000895EAE2B8
S11300D0F0E0808180648083EBE2F0E080818F7BBC
S11300E080830895E7E2F0E080818F7D8083E8E2F9
S11300F0F0E08081806280830895E8E6F0E080810A
S113010082608083ECE6F0E08081806280830895E1
S1130110982FE0ECF0E0808185FFFDCF9093C6003E
S11301200895CF93DF93FC018081882339F0EF0198
S11301300E948800898121968823D1F7DF91CF918D
S11301400895E4E2F0E080818260808380818460AD
S11301508083E7E2F0E08081826080838081816037
S113016080830895E4E4F0E0808183688083609173
S1130170260170912701809128019091290120E0A6
S113018030E048EC52E40E94980220E030E04FE76F
S113019053E40E947D030E94000367BD91E095BD76
S11301A01092B00087E08093B10090937000109299
S11301B0B2000895EAE2F0E0808180688083808163
S11301C08B7F808324EF31E040E951E0CA0101973D
S11301D0F1F721503040D1F7EDE3F0E08081816008
S11301E08083E9E6F0E08081816080830895E8E21D
S11301F0F0E080818160808380818D7F8083E5E26F
S1130200F0E080818260808380818B7F8083089589
S1130210E8E2F0E080818260808380818E7F808349
S1130220E5E2F0E080818460808380818D7F80833B
S1130230089517BC08951F920F920FB60F921124C0
S11302402F933F934F935F936F937F938F939F93DA
S1130250AF93BF93EF93FF93809132019091330159
S113026001969093330180933201809132019091F1
S113027033018052934001F580912A0190912B0122
S1130280019741F40E9419018FEF9FEF90932B0186
S113029080932A0180912A0190912B01892B41F4AA
S11302A00E94080181E090E090932B0180932A0141
S11302B01092330110923201FF91EF91BF91AF91EF
S11302C09F918F917F916F915F914F913F912F916A
S11302D00F900FBE0F901F9018951F920F920FB69C
S11302E00F921124EF92FF920F931F932F933F933A
S11302F04F935F936F937F938F939F93AF93BF932A
S1130300EF93FF9380912C0190912D01019749F572
S1130310109281000F2EF4E8EF2EFF24F02DF70148
S11303200081118160912E0170912F01882777FD42
S11303308095982F2FEF3FEF40E050E00E94E003BC
S1130340060F171F1093310100933001F70111823A
S1130350108210922D0110922C0110922F011092F4
S11303602E0180912C0190912D01892B79F410920A
S11303702F0110922E01E1E8F0E0808182608083F9
S113038081E090E090932D0180932C01FF91EF91F7
S1130390BF91AF919F918F917F916F915F914F9199
S11303A03F912F911F910F91FF90EF900F900FBEEF
S11303B00F901F9018951F920F920FB60F92112451
S11303C08F939F93EF93FF9380912C0190912D0134
S11303D0019799F4109285001092840080912E0167
S11303E090912F01019690932F0180932E01EBE2BF
S11303F0F0E0808190E489278083FF91EF919F91C1
S11304008F910F900FBE0F901F9018953F924F92AF
S11304105F926F927F928F929F92AF92BF92CF9290
S1130420DF92EF92FF920F931F93DF93CF9300D04D
S11304300F92CDB7DEB7F8940E94A1000E94B200DB
S11304400E9467000E94DA000E9472000E947D00F0
S113045087E690E00E9453000E94F70078940F2EE4
S1130460FBE2CF2EDD24F02D0F2EF0E53F2EF02DF4
S11304700F2EF3E18F2EF1E09F2EF02D5E010894F4
S1130480A11CB11C0F2EF1E26F2EF1E07F2EF02D96
S11304900F2EF0ED4F2EF7E05F2EF02D0F2EF0E92A
S11304A0EF2EF1E0FF2EF02D80912A0190912B0187
S11304B08E5F9F4F41F480E091E00E949100109282
S11304C02B0110922A0180912A0190912B018F5FB8
S11304D09F4F21F48AE091E00E949100F60180810F
S11304E080688083832D8A95F1F780818F7780835C
S11304F00091300110913101C4010E949100C801A2
S113050064E770E00E94FF03CB01B5014AE050E0CC
S11305100E942604C5010E949100C3010E9491001B
S11305209201C7010197F1F721503040D1F7BCCFB8
S11305300CD0A9C0A1D040F098D030F021F45F3F96
S113054019F08AC05111D3C08DC0AED098F399234D
S1130550C9F35523B1F3951B550BBB27AA27621783
S11305607307840738F09F5F5F4F220F331F441FC8
S1130570AA1FA9F333D00E2E3AF0E0E830D0915000
S11305805040E695001CCAF729D0FE2F27D0660FED
S1130590771F881FBB1F261737074807AB07B0E82C
S11305A009F0BB0B802DBF01FF2793585F4F2AF042
S11305B09E3F510568F050C09AC05F3FECF3983EEF
S11305C0DCF3869577956795B795F7959F5FC9F79F
S11305D0880F911D9695879597F90895E1E0660F28
S11305E0771F881FBB1F621773078407BA0720F0A1
S11305F0621B730B840BBA0BEE1F88F7E09508950A
S11306005BD088F09F5790F0B92F9927B751A0F08D
S1130610D1F0660F771F881F991F1AF0BA95C9F792
S113062012C0B13081F062D0B1E008955FC0672F8D
S1130630782F8827B85F39F0B93FCCF38695779542
S11306406795B395D9F73EF490958095709561952B
S11306507F4F8F4F9F4F089597F99F6780E870E011
S113066060E008959FEF80EC089500240A94161624
S1130670170618060906089500240A94121613068C
S1130680140605060895092E0394000C11F488231A
S113069052F0BB0F40F4BF2B11F460FF04C06F5F36
S11306A07F4F8F4F9F4F089557FD9058440F551F0C
S11306B059F05F3F71F04795880F97FB991F61F0E0
S11306C09F3F79F087950895121613061406551F57
S11306D0F2CF4695F1DF08C0161617061806991FC3
S11306E0F1CF86957105610508940895E894BB27B8
S11306F066277727CB0197F908950BD0C4CFB5DFD0
S113070028F0BADF18F0952309F0A6CFABCF112457
S1130710EECFCADFA0F3959FD1F3950F50E0551F9C
S1130720629FF001729FBB27F00DB11D639FAA2742
S1130730F00DB11DAA1F649F6627B00DA11D661F91
S1130740829F2227B00DA11D621F739FB00DA11DB2
S1130750621F839FA00D611D221F749F3327A00D6C
S1130760611D231F849F600D211D822F762F6A2F08
S113077011249F5750408AF0E1F088234AF0EE0F8D
S1130780FF1FBB1F661F771F881F91505040A9F79A
S11307909E3F510570F060CFAACF5F3FECF3983EC7
S11307A0DCF3869577956795B795F795E7959F5F01
S11307B0C1F7FE2B880F911D9695879597F908959B
S11307C0629FD001739FF001829FE00DF11D649F31
S11307D0E00DF11D929FF00D839FF00D749FF00DBD
S11307E0659FF00D9927729FB00DE11DF91F639F5E
S11307F0B00DE11DF91FBD01CF011124089597FB30
S1130800092E07260AD077FD04D00CD006D000208C
S11308101AF4709561957F4F0895F6F79095819538
S11308209F4F0895AA1BBB1B51E107C0AA1FBB1F02
S1130830A617B70710F0A61BB70B881F991F5A9568
S1130840A9F780959095BC01CD010895FB019F0106
S1130850E8944230C4F04532B4F44A3029F497FBAA
S11308601EF4909581959F4F642F77270E94120460
S1130870805D8A330CF0895D8193CB010097A1F7E9
S113088016F45DE251931082C9010C944704DC0113
S1130890FC01672F71917723E1F7329704C07C91B3
S11308A06D9370836291AE17BF07C8F30895F894EF
S10508B0FFCF74
S11308B2494E4943494F200A0D0046494E414C20B6
S11308C20A0D0044495354414E4345203D200A0D2C
S10F08D200636D0A0D000000C642FEFF2A
S9030000FC
