S01500006F7074696D75732D7072696D652E73726563B4
S11300000C9443000C9460000C9460000C94600009
S11300100C9429010C9460000C9460000C94600012
S11300200C9460000C9460000C9460000C946000CC
S11300300C9460000C9460000C9460000C946000BC
S11300400C949E010C9460000C9460000C9460006D
S11300500C9460000C9460000C9460000C9460009C
S11300600C9460000C94600005A84CCDB2D44EB939
S11300703836A9020C50B9918688083CA6AAAA2A47
S1130080BE000000803F11241FBECFEFD8E0DEBFCA
S1130090CDBF11E0A0E0B1E0ECEBFAE002C00590C6
S11300A00D92A631B107D9F718E0A6E1B1E001C07D
S11300B01D92A83EB107E1F70E9418010C945C055B
S11300C00C9400009093C5008093C400E1ECF0E030
S11300D088E18083208181E090E002C0880F991F2D
S11300E02A95E2F786608093C2000895EAE2F0E080
S11300F0808180648083EBE2F0E080818F7B808369
S11301000895E7E2F0E080818F7D8083E8E2F0E00B
S11301108081806280830895E8E6F0E080818260D7
S11301208083ECE6F0E08081806280830895982FDC
S1130130E0ECF0E0808185FFFDCF9093C600089548
S1130140CF93DF93FC018081882339F0EF010E9473
S11301509700898121968823D1F7DF91CF91089563
S1130160E4E2F0E080818260808380818460808327
S1130170E7E2F0E080818260808380818160808317
S1130180E8E2F0E080818160808380818D7F8083DC
S1130190E5E2F0E080818260808380818B7F8083D0
S11301A008951F93E4E4F0E080818368808311E084
S11301B010936E00609112017091130180911401EB
S11301C09091150120E030E048EC52E40E94E202F4
S11301D020E030E04FE753E40E940D040E944F03F7
S11301E067BD15BD1F910895E8E2F0E0808181604C
S11301F0808380818D7F8083E5E2F0E0808182606E
S1130200808380818B7F80830895E8E2F0E08081A1
S11302108260808380818E7F8083E5E2F0E080814C
S11302208460808380818D7F8083089517BC0895C6
S1130230F8940E94B0000E94D1000E9476000E94AF
S113024081000E948C0087E690E00E94620078940E
S1130250FFCF1F920F920FB60F921124CF92DF920D
S1130260EF92FF920F931F932F933F934F935F93BC
S11302706F937F938F939F93AF93BF93EF93FF936A
S1130280DF93CF93CDB7DEB72A97DEBFCDBF3599C5
S113029039C024EF31E040E951E0CA010197F1F798
S11302A021503040D1F735992DC00E941601EEE659
S11302B0F0E080818E7F808380E091E00E94A00046
S11302C008E111E07E010894E11CF11C0F2EF8EE08
S11302D0CF2EF8E0DF2EF02DF801819191918F015E
S11302E0B7014AE050E00E941705C7010E94A00030
S11302F08BE30E9497000C151D0571F787E091E0D0
S11303000E94A0002A96DEBFCDBFCF91DF91FF915E
S1130310EF91BF91AF919F918F917F916F915F9179
S11303204F913F912F911F910F91FF90EF90DF908C
S1130330CF900F900FBE0F901F9018951F920F92A1
S11303400FB60F921124AF92BF92CF92DF92EF9229
S1130350FF920F931F932F933F934F935F936F934A
S11303607F938F939F93AF93BF93EF93FF9324EF68
S113037031E040E951E0CA010197F1F721503040E2
S1130380D1F76091160170911701882777FD809548
S1130390982F0E947D035B016C012DEC3CEC4CEC2E
S11303A05DE30E940D040E9470047B018C0120E037
S11303B030E040E050E00E9409048823CCF0C801FA
S11303C0B70120E030E048E452E40E940D0420E04C
S11303D030E048E452E40E947E026093120170937C
S11303E0130180931401909315010E94F40020C01E
S11303F0C601B5012DEC3CEC4CEC5DEB0E940D0408
S11304000E94700420E030E048E452E40E940D04AD
S113041020E030E048E452E40E947E02609312013E
S11304207093130180931401909315010E940501A8
S11304306091120170911301809114019091150142
S113044020E030E048EC52E40E940904882364F080
S113045080E090E0A0E0B0E080931201909313015B
S1130460A0931401B0931501A0901601B090170148
S1130470C0901201D0901301E0901401F090150186
S11304808501000F111F085E1E4FC701B6010E94AF
S11304904A03F80171836083C701B60120E030E0AC
S11304A048EC52E40E94E20220E030E04FE753E4DB
S11304B00E940D040E944F0367BD0894A11CB11C47
S11304C0B0921701A0921601FF91EF91BF91AF91E5
S11304D09F918F917F916F915F914F913F912F9158
S11304E01F910F91FF90EF90DF90CF90BF90AF904E
S11304F00F900FBE0F901F9018955058BB27AA2736
S11305000ED04DC13ED130F043D120F031F49F3FA5
S113051011F41EF433C10EF4E095E7FB29C1E92F71
S11305204FD180F3BA17620773078407950718F051
S113053071F49EF567C10EF4E0950B2EBA2FA02D31
S11305400B01B90190010C01CA01A0011124FF277C
S1130550591B99F0593F50F4503E68F11A16F04077
S1130560A22F232F342F4427585FF3CF4695379576
S11305702795A795F0405395C9F77EF41F16BA0B3B
S1130580620B730B840BBAF09150A1F0FF0FBB1FE9
S1130590661F771F881FC2F70EC0BA0F621F731F32
S11305A0841F48F4879577956795B795F7959E3F8F
S11305B008F0B3CF9395880F08F09927EE0F97951D
S11305C0879508950CD0EBC0E3D040F0DAD030F03A
S11305D021F45F3F19F0CCC0511115C1CFC0F0D048
S11305E098F39923C9F35523B1F3951B550BBB27F6
S11305F0AA2762177307840738F09F5F5F4F220FA3
S1130600331F441FAA1FA9F333D00E2E3AF0E0E89B
S113061030D091505040E695001CCAF729D0FE2FE7
S113062027D0660F771F881FBB1F26173707480779
S1130630AB07B0E809F0BB0B802DBF01FF2793582F
S11306405F4F2AF09E3F510568F092C0DCC05F3FC7
S1130650ECF3983EDCF3869577956795B795F79517
S11306609F5FC9F7880F911D9695879597F908950F
S1130670E1E0660F771F881FBB1F621773078407AB
S1130680BA0720F0621B730B840BBA0BEE1F88F7BA
S1130690E095089504D06894B111B5C0089598D038
S11306A088F09F5790F0B92F9927B751A0F0D1F057
S11306B0660F771F881F991F1AF0BA95C9F712C0E1
S11306C0B13081F09FD0B1E008959CC0672F782F9E
S11306D08827B85F39F0B93FCCF38695779567954D
S11306E0B395D9F73EF490958095709561957F4FB9
S11306F08F4F9F4F0895E89409C097FB3EF490955F
S11307008095709561957F4F8F4F9F4F9923A9F0E6
S1130710F92F96E9BB279395F69587957795679575
S1130720B795F111F8CFFAF4BB0F11F460FF1BC0B9
S11307306F5F7F4F8F4F9F4F16C0882311F096E94C
S113074011C0772321F09EE8872F762F05C06623FA
S113075071F096E8862F70E060E02AF09A95660FB3
S1130760771F881FDAF7880F9695879597F908956C
S113077097F99F6780E870E060E008959FEF80EC50
S1130780089500240A9416161706180609060895F3
S113079000240A9412161306140605060895092E59
S11307A00394000C11F4882352F0BB0F40F4BF2BC8
S11307B011F460FF04C06F5F7F4F8F4F9F4F089508
S11307C057FD9058440F551F59F05F3F71F04795FE
S11307D0880F97FB991F61F09F3F79F087950895E3
S11307E0121613061406551FF2CF4695F1DF08C002
S11307F0161617061806991FF1CF8695710561051F
S113080008940895E894BB2766277727CB0197F9C6
S113081008956CD008F48FEF08950BD0C0CFB1DFEA
S113082028F0B6DF18F0952309F0A2CFA7CF112442
S1130830EACFC6DFA0F3959FD1F3950F50E0551F83
S1130840629FF001729FBB27F00DB11D639FAA2721
S1130850F00DB11DAA1F649F6627B00DA11D661F70
S1130860829F2227B00DA11D621F739FB00DA11D91
S1130870621F839FA00D611D221F749F3327A00D4B
S1130880611D231F849F600D211D822F762F6A2FE7
S113089011249F5750408AF0E1F088234AF0EE0F6C
S11308A0FF1FBB1F661F771F881F91505040A9F779
S11308B09E3F510570F05CCFA6CF5F3FECF3983EAE
S11308C0DCF3869577956795B795F795E7959F5FE0
S11308D0C1F7FE2B880F911D9695879597F908957A
S11308E09F9329D00F9007FCEE5F4CC0990F00082E
S11308F0550FAA0BE0E8FEEF16161706E807F907EE
S1130900C0F012161306E407F50798F0621B730B88
S1130910840B950B39F40A2661F0232B242B252B09
S113092021F408950A2609F4A140A6958FEF811DAC
S1130930811D089523CF4CDFE8F3E894E0E0BB2762
S11309409F57F0F02AED3FE049EC06C0EE0FBB0FD5
S1130950661F771F881F28F0B23A6207730784075F
S113096028F0B25A620B730B840BE3959A9572F7D5
S1130970803830F49A95BB0F661F771F881FD2F713
S1130980904813C0EF93E0FF06C0A2EA2AED3FE0CF
S113099049EC5FEBC4DD03DF0F90039401FC905836
S11309A0E8E6F0E00EC09F3F31F0915020F48795C7
S11309B077956795B795880F911D9695879597F9C3
S11309C008959F938F937F936F93FF93EF939B016E
S11309D0AC0123DFEF91FF9105D02F913F914F910F
S11309E05F911BCFDF93CF931F930F93FF92EF92EF
S11309F0DF927B018C01689405C0DA2EEF0119DFC8
S1130A00FE01E894A5912591359145915591AEF358
S1130A10EF0185DDFE019701A801DA9479F7DF90F3
S1130A20EF90FF900F911F91CF91DF910895FB01FB
S1130A309F01E8944230C4F04532B4F44A3029F4BA
S1130A4097FB1EF4909581959F4F642F77270E9402
S1130A504805805D8A330CF0895D8193CB01009752
S1130A60A1F716F45DE251931082C9010C94380584
S1130A70DC01FC01672F71917723E1F7329704C001
S1130A807C916D9370836291AE17BF07C8F308958C
S1130A90AA1BBB1B51E107C0AA1FBB1FA617B707A0
S1130AA010F0A61BB70B881F991F5A95A9F78095BC
S10F0AB09095BC01CD010895F894FFCF8F
S1130ABC53746F700A0D000A0D46696E6973680AE7
S1090ACC0D000000484289
S9030000FC
